{
  "_format": "hh-sol-artifact-1",
  "contractName": "Escrow",
  "sourceName": "contracts/Escrow.sol",
  "abi": [
    {
      "inputs": [
        {
          "internalType": "address",
          "name": "_client",
          "type": "address"
        },
        {
          "internalType": "address",
          "name": "_freelancer",
          "type": "address"
        },
        {
          "internalType": "uint256",
          "name": "_amount",
          "type": "uint256"
        },
        {
          "internalType": "uint256",
          "name": "_submissionPeriodInDays",
          "type": "uint256"
        },
        {
          "internalType": "address",
          "name": "_usdc",
          "type": "address"
        },
        {
          "internalType": "address[]",
          "name": "_arbitrators",
          "type": "address[]"
        }
      ],
      "stateMutability": "nonpayable",
      "type": "constructor"
    },
    {
      "anonymous": false,
      "inputs": [],
      "name": "DisputeRaised",
      "type": "event"
    },
    {
      "anonymous": false,
      "inputs": [
        {
          "indexed": false,
          "internalType": "uint256",
          "name": "amount",
          "type": "uint256"
        }
      ],
      "name": "EscrowFunded",
      "type": "event"
    },
    {
      "anonymous": false,
      "inputs": [],
      "name": "PaymentReleased",
      "type": "event"
    },
    {
      "anonymous": false,
      "inputs": [
        {
          "indexed": false,
          "internalType": "string",
          "name": "fileUrl",
          "type": "string"
        }
      ],
      "name": "WorkSubmitted",
      "type": "event"
    },
    {
      "inputs": [],
      "name": "amount",
      "outputs": [
        {
          "internalType": "uint256",
          "name": "",
          "type": "uint256"
        }
      ],
      "stateMutability": "view",
      "type": "function"
    },
    {
      "inputs": [
        {
          "internalType": "uint256",
          "name": "",
          "type": "uint256"
        }
      ],
      "name": "arbitrators",
      "outputs": [
        {
          "internalType": "address",
          "name": "",
          "type": "address"
        }
      ],
      "stateMutability": "view",
      "type": "function"
    },
    {
      "inputs": [],
      "name": "client",
      "outputs": [
        {
          "internalType": "address",
          "name": "",
          "type": "address"
        }
      ],
      "stateMutability": "view",
      "type": "function"
    },
    {
      "inputs": [],
      "name": "file",
      "outputs": [
        {
          "internalType": "string",
          "name": "",
          "type": "string"
        }
      ],
      "stateMutability": "view",
      "type": "function"
    },
    {
      "inputs": [],
      "name": "fileHash",
      "outputs": [
        {
          "internalType": "bytes32",
          "name": "",
          "type": "bytes32"
        }
      ],
      "stateMutability": "view",
      "type": "function"
    },
    {
      "inputs": [],
      "name": "freelancer",
      "outputs": [
        {
          "internalType": "address",
          "name": "",
          "type": "address"
        }
      ],
      "stateMutability": "view",
      "type": "function"
    },
    {
      "inputs": [],
      "name": "fundEscrow",
      "outputs": [],
      "stateMutability": "nonpayable",
      "type": "function"
    },
    {
      "inputs": [],
      "name": "getEscrowState",
      "outputs": [
        {
          "internalType": "string",
          "name": "",
          "type": "string"
        }
      ],
      "stateMutability": "view",
      "type": "function"
    },
    {
      "inputs": [
        {
          "internalType": "address",
          "name": "",
          "type": "address"
        }
      ],
      "name": "hasVoted",
      "outputs": [
        {
          "internalType": "bool",
          "name": "",
          "type": "bool"
        }
      ],
      "stateMutability": "view",
      "type": "function"
    },
    {
      "inputs": [
        {
          "internalType": "address",
          "name": "",
          "type": "address"
        }
      ],
      "name": "isArbitrator",
      "outputs": [
        {
          "internalType": "bool",
          "name": "",
          "type": "bool"
        }
      ],
      "stateMutability": "view",
      "type": "function"
    },
    {
      "inputs": [],
      "name": "raiseDispute",
      "outputs": [],
      "stateMutability": "nonpayable",
      "type": "function"
    },
    {
      "inputs": [],
      "name": "releasePayment",
      "outputs": [],
      "stateMutability": "nonpayable",
      "type": "function"
    },
    {
      "inputs": [],
      "name": "state",
      "outputs": [
        {
          "internalType": "enum Escrow.State",
          "name": "",
          "type": "uint8"
        }
      ],
      "stateMutability": "view",
      "type": "function"
    },
    {
      "inputs": [],
      "name": "submissionDeadline",
      "outputs": [
        {
          "internalType": "uint256",
          "name": "",
          "type": "uint256"
        }
      ],
      "stateMutability": "view",
      "type": "function"
    },
    {
      "inputs": [
        {
          "internalType": "string",
          "name": "_fileUrl",
          "type": "string"
        }
      ],
      "name": "submitWork",
      "outputs": [],
      "stateMutability": "nonpayable",
      "type": "function"
    },
    {
      "inputs": [],
      "name": "totalVotes",
      "outputs": [
        {
          "internalType": "uint256",
          "name": "",
          "type": "uint256"
        }
      ],
      "stateMutability": "view",
      "type": "function"
    },
    {
      "inputs": [],
      "name": "usdc",
      "outputs": [
        {
          "internalType": "contract IERC20",
          "name": "",
          "type": "address"
        }
      ],
      "stateMutability": "view",
      "type": "function"
    },
    {
      "inputs": [
        {
          "internalType": "bool",
          "name": "inFavor",
          "type": "bool"
        }
      ],
      "name": "vote",
      "outputs": [],
      "stateMutability": "nonpayable",
      "type": "function"
    },
    {
      "inputs": [],
      "name": "votesAgainst",
      "outputs": [
        {
          "internalType": "uint256",
          "name": "",
          "type": "uint256"
        }
      ],
      "stateMutability": "view",
      "type": "function"
    },
    {
      "inputs": [],
      "name": "votesInFavor",
      "outputs": [
        {
          "internalType": "uint256",
          "name": "",
          "type": "uint256"
        }
      ],
      "stateMutability": "view",
      "type": "function"
    }
  ],
  "bytecode": "0x60806040523480156200001157600080fd5b50604051620029e6380380620029e6833981810160405281019062000037919062000498565b856000806101000a81548173ffffffffffffffffffffffffffffffffffffffff021916908373ffffffffffffffffffffffffffffffffffffffff16021790555084600160006101000a81548173ffffffffffffffffffffffffffffffffffffffff021916908373ffffffffffffffffffffffffffffffffffffffff160217905550836002819055506201518083620000d0919062000582565b42620000dd9190620005cd565b6003819055506000600460006101000a81548160ff021916908360058111156200010c576200010b62000608565b5b021790555081600460016101000a81548173ffffffffffffffffffffffffffffffffffffffff021916908373ffffffffffffffffffffffffffffffffffffffff16021790555060005b81518110156200026257600782828151811062000177576200017662000637565b5b60200260200101519080600181540180825580915050600190039060005260206000200160009091909190916101000a81548173ffffffffffffffffffffffffffffffffffffffff021916908373ffffffffffffffffffffffffffffffffffffffff160217905550600160086000848481518110620001fb57620001fa62000637565b5b602002602001015173ffffffffffffffffffffffffffffffffffffffff1673ffffffffffffffffffffffffffffffffffffffff16815260200190815260200160002060006101000a81548160ff021916908315150217905550808060010191505062000155565b5050505050505062000666565b6000604051905090565b600080fd5b600080fd5b600073ffffffffffffffffffffffffffffffffffffffff82169050919050565b6000620002b08262000283565b9050919050565b620002c281620002a3565b8114620002ce57600080fd5b50565b600081519050620002e281620002b7565b92915050565b6000819050919050565b620002fd81620002e8565b81146200030957600080fd5b50565b6000815190506200031d81620002f2565b92915050565b600080fd5b6000601f19601f8301169050919050565b7f4e487b7100000000000000000000000000000000000000000000000000000000600052604160045260246000fd5b620003738262000328565b810181811067ffffffffffffffff8211171562000395576200039462000339565b5b80604052505050565b6000620003aa6200026f565b9050620003b8828262000368565b919050565b600067ffffffffffffffff821115620003db57620003da62000339565b5b602082029050602081019050919050565b600080fd5b6000620004086200040284620003bd565b6200039e565b905080838252602082019050602084028301858111156200042e576200042d620003ec565b5b835b818110156200045b5780620004468882620002d1565b84526020840193505060208101905062000430565b5050509392505050565b600082601f8301126200047d576200047c62000323565b5b81516200048f848260208601620003f1565b91505092915050565b60008060008060008060c08789031215620004b857620004b762000279565b5b6000620004c889828a01620002d1565b9650506020620004db89828a01620002d1565b9550506040620004ee89828a016200030c565b94505060606200050189828a016200030c565b93505060806200051489828a01620002d1565b92505060a087015167ffffffffffffffff8111156200053857620005376200027e565b5b6200054689828a0162000465565b9150509295509295509295565b7f4e487b7100000000000000000000000000000000000000000000000000000000600052601160045260246000fd5b60006200058f82620002e8565b91506200059c83620002e8565b9250828202620005ac81620002e8565b91508282048414831517620005c657620005c562000553565b5b5092915050565b6000620005da82620002e8565b9150620005e783620002e8565b925082820190508082111562000602576200060162000553565b5b92915050565b7f4e487b7100000000000000000000000000000000000000000000000000000000600052602160045260246000fd5b7f4e487b7100000000000000000000000000000000000000000000000000000000600052603260045260246000fd5b61237080620006766000396000f3fe608060405234801561001057600080fd5b506004361061012c5760003560e01c806391b4384d116100ad578063aa8c217c11610071578063aa8c217c146102fd578063c19d93fb1461031b578063d116c8c414610339578063df44be2c14610343578063f9c55115146103615761012c565b806391b4384d146102575780639f6bd2a914610275578063a37dda2c146102a5578063a5d737ac146102c3578063a6430cc0146102cd5761012c565b80633e413bee116100f45780633e413bee146101d75780634b9f5c98146101f55780635e5d6bb5146102115780636daa2d441461022f5780638525855d146102395761012c565b8063095da7f61461013157806309eef43e1461014d5780630d15fd771461017d578063109e94cf1461019b57806324c8c698146101b9575b600080fd5b61014b600480360381019061014691906116b3565b61037f565b005b6101676004803603810190610162919061175a565b6105b6565b60405161017491906117a2565b60405180910390f35b6101856105d6565b60405161019291906117d6565b60405180910390f35b6101a36105dc565b6040516101b09190611800565b60405180910390f35b6101c1610600565b6040516101ce9190611834565b60405180910390f35b6101df610606565b6040516101ec91906118ae565b60405180910390f35b61020f600480360381019061020a91906118f5565b61062c565b005b61021961087f565b60405161022691906117d6565b60405180910390f35b610237610885565b005b6102416109fc565b60405161024e91906119a1565b60405180910390f35b61025f610a8a565b60405161026c91906117d6565b60405180910390f35b61028f600480360381019061028a919061175a565b610a90565b60405161029c91906117a2565b60405180910390f35b6102ad610ab0565b6040516102ba9190611800565b60405180910390f35b6102cb610ad6565b005b6102e760048036038101906102e291906119ef565b610d25565b6040516102f49190611800565b60405180910390f35b610305610d64565b60405161031291906117d6565b60405180910390f35b610323610d6a565b6040516103309190611a93565b60405180910390f35b610341610d7d565b005b61034b610fa1565b60405161035891906119a1565b60405180910390f35b6103696112ae565b60405161037691906117d6565b60405180910390f35b600160009054906101000a900473ffffffffffffffffffffffffffffffffffffffff1673ffffffffffffffffffffffffffffffffffffffff163373ffffffffffffffffffffffffffffffffffffffff161461040f576040517f08c379a000000000000000000000000000000000000000000000000000000000815260040161040690611b20565b60405180910390fd5b600180600581111561042457610423611a1c565b5b600460009054906101000a900460ff16600581111561044657610445611a1c565b5b14610486576040517f08c379a000000000000000000000000000000000000000000000000000000000815260040161047d90611b8c565b60405180910390fd5b6003544211156104cb576040517f08c379a00000000000000000000000000000000000000000000000000000000081526004016104c290611bf8565b60405180910390fd5b81600590816104da9190611e1a565b506002826040516020016104ee9190611f28565b60405160208183030381529060405260405161050a9190611f86565b602060405180830381855afa158015610527573d6000803e3d6000fd5b5050506040513d601f19601f8201168201806040525081019061054a9190611fc9565b6006819055506002600460006101000a81548160ff0219169083600581111561057657610575611a1c565b5b02179055507f9d0581297f0ce789714b600feee27278aa53d55e6834cf60265df447fb5bdb5f826040516105aa91906119a1565b60405180910390a15050565b60096020528060005260406000206000915054906101000a900460ff1681565b600c5481565b60008054906101000a900473ffffffffffffffffffffffffffffffffffffffff1681565b60065481565b600460019054906101000a900473ffffffffffffffffffffffffffffffffffffffff1681565b600860003373ffffffffffffffffffffffffffffffffffffffff1673ffffffffffffffffffffffffffffffffffffffff16815260200190815260200160002060009054906101000a900460ff166106b8576040517f08c379a00000000000000000000000000000000000000000000000000000000081526004016106af90612068565b60405180910390fd5b60058060058111156106cd576106cc611a1c565b5b600460009054906101000a900460ff1660058111156106ef576106ee611a1c565b5b1461072f576040517f08c379a000000000000000000000000000000000000000000000000000000000815260040161072690611b8c565b60405180910390fd5b600960003373ffffffffffffffffffffffffffffffffffffffff1673ffffffffffffffffffffffffffffffffffffffff16815260200190815260200160002060009054906101000a900460ff16156107bc576040517f08c379a00000000000000000000000000000000000000000000000000000000081526004016107b3906120d4565b60405180910390fd5b6001600960003373ffffffffffffffffffffffffffffffffffffffff1673ffffffffffffffffffffffffffffffffffffffff16815260200190815260200160002060006101000a81548160ff021916908315150217905550600c600081548092919061082790612123565b9190505550811561084f57600a600081548092919061084590612123565b9190505550610868565b600b600081548092919061086290612123565b91905055505b6003600c540361087b5761087a6112b4565b5b5050565b600a5481565b60008054906101000a900473ffffffffffffffffffffffffffffffffffffffff1673ffffffffffffffffffffffffffffffffffffffff163373ffffffffffffffffffffffffffffffffffffffff1614610913576040517f08c379a000000000000000000000000000000000000000000000000000000000815260040161090a906121dd565b60405180910390fd5b600280600581111561092857610927611a1c565b5b600460009054906101000a900460ff16600581111561094a57610949611a1c565b5b1461098a576040517f08c379a000000000000000000000000000000000000000000000000000000000815260040161098190611b8c565b60405180910390fd5b6005600460006101000a81548160ff021916908360058111156109b0576109af611a1c565b5b02179055506000600a819055506000600b819055506000600c819055507fa9f218df296bdff29869b6b40927376285db89e1726d55dc7a5583eab3f72c4260405160405180910390a150565b60058054610a0990611c47565b80601f0160208091040260200160405190810160405280929190818152602001828054610a3590611c47565b8015610a825780601f10610a5757610100808354040283529160200191610a82565b820191906000526020600020905b815481529060010190602001808311610a6557829003601f168201915b505050505081565b600b5481565b60086020528060005260406000206000915054906101000a900460ff1681565b600160009054906101000a900473ffffffffffffffffffffffffffffffffffffffff1681565b60008054906101000a900473ffffffffffffffffffffffffffffffffffffffff1673ffffffffffffffffffffffffffffffffffffffff163373ffffffffffffffffffffffffffffffffffffffff1614610b64576040517f08c379a0000000000000000000000000000000000000000000000000000000008152600401610b5b906121dd565b60405180910390fd5b6000806005811115610b7957610b78611a1c565b5b600460009054906101000a900460ff166005811115610b9b57610b9a611a1c565b5b14610bdb576040517f08c379a0000000000000000000000000000000000000000000000000000000008152600401610bd290611b8c565b60405180910390fd5b600460019054906101000a900473ffffffffffffffffffffffffffffffffffffffff1673ffffffffffffffffffffffffffffffffffffffff166323b872dd33306002546040518463ffffffff1660e01b8152600401610c3c939291906121fd565b6020604051808303816000875af1158015610c5b573d6000803e3d6000fd5b505050506040513d601f19601f82011682018060405250810190610c7f9190612249565b610cbe576040517f08c379a0000000000000000000000000000000000000000000000000000000008152600401610cb5906122c2565b60405180910390fd5b6001600460006101000a81548160ff02191690836005811115610ce457610ce3611a1c565b5b02179055507f3b4f5a74452cddb80ae5a0d279eb7db6afd5e556e72ca2883016b1da7c9d2116600254604051610d1a91906117d6565b60405180910390a150565b60078181548110610d3557600080fd5b906000526020600020016000915054906101000a900473ffffffffffffffffffffffffffffffffffffffff1681565b60025481565b600460009054906101000a900460ff1681565b60008054906101000a900473ffffffffffffffffffffffffffffffffffffffff1673ffffffffffffffffffffffffffffffffffffffff163373ffffffffffffffffffffffffffffffffffffffff1614610e0b576040517f08c379a0000000000000000000000000000000000000000000000000000000008152600401610e02906121dd565b60405180910390fd5b6002806005811115610e2057610e1f611a1c565b5b600460009054906101000a900460ff166005811115610e4257610e41611a1c565b5b14610e82576040517f08c379a0000000000000000000000000000000000000000000000000000000008152600401610e7990611b8c565b60405180910390fd5b600460019054906101000a900473ffffffffffffffffffffffffffffffffffffffff1673ffffffffffffffffffffffffffffffffffffffff1663a9059cbb600160009054906101000a900473ffffffffffffffffffffffffffffffffffffffff166002546040518363ffffffff1660e01b8152600401610f039291906122e2565b6020604051808303816000875af1158015610f22573d6000803e3d6000fd5b505050506040513d601f19601f82011682018060405250810190610f469190612249565b506003600460006101000a81548160ff02191690836005811115610f6d57610f6c611a1c565b5b02179055507f81a961bb897d4b56753a72e24cddad54283f65d9c5f92a0e6def13dc52c91ccc60405160405180910390a150565b606060006005811115610fb757610fb6611a1c565b5b600460009054906101000a900460ff166005811115610fd957610fd8611a1c565b5b0361101b576040518060400160405280601081526020017f4157414954494e475f5041594d454e540000000000000000000000000000000081525090506112ab565b6001600581111561102f5761102e611a1c565b5b600460009054906101000a900460ff16600581111561105157611050611a1c565b5b03611093576040518060400160405280601181526020017f4157414954494e475f44454c495645525900000000000000000000000000000081525090506112ab565b600260058111156110a7576110a6611a1c565b5b600460009054906101000a900460ff1660058111156110c9576110c8611a1c565b5b0361110b576040518060400160405280600e81526020017f574f524b5f5355424d495454454400000000000000000000000000000000000081525090506112ab565b6003600581111561111f5761111e611a1c565b5b600460009054906101000a900460ff16600581111561114157611140611a1c565b5b03611183576040518060400160405280600881526020017f434f4d504c45544500000000000000000000000000000000000000000000000081525090506112ab565b6004600581111561119757611196611a1c565b5b600460009054906101000a900460ff1660058111156111b9576111b8611a1c565b5b036111fb576040518060400160405280600881526020017f524546554e44454400000000000000000000000000000000000000000000000081525090506112ab565b60058081111561120e5761120d611a1c565b5b600460009054906101000a900460ff1660058111156112305761122f611a1c565b5b03611272576040518060400160405280600a81526020017f494e5f444953505554450000000000000000000000000000000000000000000081525090506112ab565b6040518060400160405280600781526020017f554e4b4e4f574e0000000000000000000000000000000000000000000000000081525090505b90565b60035481565b600b54600a5411156113b257600460019054906101000a900473ffffffffffffffffffffffffffffffffffffffff1673ffffffffffffffffffffffffffffffffffffffff1663a9059cbb60008054906101000a900473ffffffffffffffffffffffffffffffffffffffff166002546040518363ffffffff1660e01b815260040161133f9291906122e2565b6020604051808303816000875af115801561135e573d6000803e3d6000fd5b505050506040513d601f19601f820116820180604052508101906113829190612249565b5060048060006101000a81548160ff021916908360058111156113a8576113a7611a1c565b5b02179055506114a3565b600460019054906101000a900473ffffffffffffffffffffffffffffffffffffffff1673ffffffffffffffffffffffffffffffffffffffff1663a9059cbb600160009054906101000a900473ffffffffffffffffffffffffffffffffffffffff166002546040518363ffffffff1660e01b81526004016114339291906122e2565b6020604051808303816000875af1158015611452573d6000803e3d6000fd5b505050506040513d601f19601f820116820180604052508101906114769190612249565b506003600460006101000a81548160ff0219169083600581111561149d5761149c611a1c565b5b02179055505b60005b60078054905081101561155657600060096000600784815481106114cd576114cc61230b565b5b9060005260206000200160009054906101000a900473ffffffffffffffffffffffffffffffffffffffff1673ffffffffffffffffffffffffffffffffffffffff1673ffffffffffffffffffffffffffffffffffffffff16815260200190815260200160002060006101000a81548160ff02191690831515021790555080806001019150506114a6565b50565b6000604051905090565b600080fd5b600080fd5b600080fd5b600080fd5b6000601f19601f8301169050919050565b7f4e487b7100000000000000000000000000000000000000000000000000000000600052604160045260246000fd5b6115c082611577565b810181811067ffffffffffffffff821117156115df576115de611588565b5b80604052505050565b60006115f2611559565b90506115fe82826115b7565b919050565b600067ffffffffffffffff82111561161e5761161d611588565b5b61162782611577565b9050602081019050919050565b82818337600083830152505050565b600061165661165184611603565b6115e8565b90508281526020810184848401111561167257611671611572565b5b61167d848285611634565b509392505050565b600082601f83011261169a5761169961156d565b5b81356116aa848260208601611643565b91505092915050565b6000602082840312156116c9576116c8611563565b5b600082013567ffffffffffffffff8111156116e7576116e6611568565b5b6116f384828501611685565b91505092915050565b600073ffffffffffffffffffffffffffffffffffffffff82169050919050565b6000611727826116fc565b9050919050565b6117378161171c565b811461174257600080fd5b50565b6000813590506117548161172e565b92915050565b6000602082840312156117705761176f611563565b5b600061177e84828501611745565b91505092915050565b60008115159050919050565b61179c81611787565b82525050565b60006020820190506117b76000830184611793565b92915050565b6000819050919050565b6117d0816117bd565b82525050565b60006020820190506117eb60008301846117c7565b92915050565b6117fa8161171c565b82525050565b600060208201905061181560008301846117f1565b92915050565b6000819050919050565b61182e8161181b565b82525050565b60006020820190506118496000830184611825565b92915050565b6000819050919050565b600061187461186f61186a846116fc565b61184f565b6116fc565b9050919050565b600061188682611859565b9050919050565b60006118988261187b565b9050919050565b6118a88161188d565b82525050565b60006020820190506118c3600083018461189f565b92915050565b6118d281611787565b81146118dd57600080fd5b50565b6000813590506118ef816118c9565b92915050565b60006020828403121561190b5761190a611563565b5b6000611919848285016118e0565b91505092915050565b600081519050919050565b600082825260208201905092915050565b60005b8381101561195c578082015181840152602081019050611941565b60008484015250505050565b600061197382611922565b61197d818561192d565b935061198d81856020860161193e565b61199681611577565b840191505092915050565b600060208201905081810360008301526119bb8184611968565b905092915050565b6119cc816117bd565b81146119d757600080fd5b50565b6000813590506119e9816119c3565b92915050565b600060208284031215611a0557611a04611563565b5b6000611a13848285016119da565b91505092915050565b7f4e487b7100000000000000000000000000000000000000000000000000000000600052602160045260246000fd5b60068110611a5c57611a5b611a1c565b5b50565b6000819050611a6d82611a4b565b919050565b6000611a7d82611a5f565b9050919050565b611a8d81611a72565b82525050565b6000602082019050611aa86000830184611a84565b92915050565b7f4f6e6c7920667265656c616e6365722063616e20706572666f726d207468697360008201527f20616374696f6e00000000000000000000000000000000000000000000000000602082015250565b6000611b0a60278361192d565b9150611b1582611aae565b604082019050919050565b60006020820190508181036000830152611b3981611afd565b9050919050565b7f496e76616c69642073746174652e000000000000000000000000000000000000600082015250565b6000611b76600e8361192d565b9150611b8182611b40565b602082019050919050565b60006020820190508181036000830152611ba581611b69565b9050919050565b7f5375626d697373696f6e20646561646c696e65207061737365642e0000000000600082015250565b6000611be2601b8361192d565b9150611bed82611bac565b602082019050919050565b60006020820190508181036000830152611c1181611bd5565b9050919050565b7f4e487b7100000000000000000000000000000000000000000000000000000000600052602260045260246000fd5b60006002820490506001821680611c5f57607f821691505b602082108103611c7257611c71611c18565b5b50919050565b60008190508160005260206000209050919050565b60006020601f8301049050919050565b600082821b905092915050565b600060088302611cda7fffffffffffffffffffffffffffffffffffffffffffffffffffffffffffffffff82611c9d565b611ce48683611c9d565b95508019841693508086168417925050509392505050565b6000611d17611d12611d0d846117bd565b61184f565b6117bd565b9050919050565b6000819050919050565b611d3183611cfc565b611d45611d3d82611d1e565b848454611caa565b825550505050565b600090565b611d5a611d4d565b611d65818484611d28565b505050565b5b81811015611d8957611d7e600082611d52565b600181019050611d6b565b5050565b601f821115611dce57611d9f81611c78565b611da884611c8d565b81016020851015611db7578190505b611dcb611dc385611c8d565b830182611d6a565b50505b505050565b600082821c905092915050565b6000611df160001984600802611dd3565b1980831691505092915050565b6000611e0a8383611de0565b9150826002028217905092915050565b611e2382611922565b67ffffffffffffffff811115611e3c57611e3b611588565b5b611e468254611c47565b611e51828285611d8d565b600060209050601f831160018114611e845760008415611e72578287015190505b611e7c8582611dfe565b865550611ee4565b601f198416611e9286611c78565b60005b82811015611eba57848901518255600182019150602085019450602081019050611e95565b86831015611ed75784890151611ed3601f891682611de0565b8355505b6001600288020188555050505b505050505050565b600081905092915050565b6000611f0282611922565b611f0c8185611eec565b9350611f1c81856020860161193e565b80840191505092915050565b6000611f348284611ef7565b915081905092915050565b600081519050919050565b600081905092915050565b6000611f6082611f3f565b611f6a8185611f4a565b9350611f7a81856020860161193e565b80840191505092915050565b6000611f928284611f55565b915081905092915050565b611fa68161181b565b8114611fb157600080fd5b50565b600081519050611fc381611f9d565b92915050565b600060208284031215611fdf57611fde611563565b5b6000611fed84828501611fb4565b91505092915050565b7f4f6e6c792061726269747261746f72732063616e20706572666f726d2074686960008201527f7320616374696f6e000000000000000000000000000000000000000000000000602082015250565b600061205260288361192d565b915061205d82611ff6565b604082019050919050565b6000602082019050818103600083015261208181612045565b9050919050565b7f41726269747261746f722068617320616c726561647920766f74656400000000600082015250565b60006120be601c8361192d565b91506120c982612088565b602082019050919050565b600060208201905081810360008301526120ed816120b1565b9050919050565b7f4e487b7100000000000000000000000000000000000000000000000000000000600052601160045260246000fd5b600061212e826117bd565b91507fffffffffffffffffffffffffffffffffffffffffffffffffffffffffffffffff82036121605761215f6120f4565b5b600182019050919050565b7f4f6e6c7920636c69656e742063616e20706572666f726d20746869732061637460008201527f696f6e0000000000000000000000000000000000000000000000000000000000602082015250565b60006121c760238361192d565b91506121d28261216b565b604082019050919050565b600060208201905081810360008301526121f6816121ba565b9050919050565b600060608201905061221260008301866117f1565b61221f60208301856117f1565b61222c60408301846117c7565b949350505050565b600081519050612243816118c9565b92915050565b60006020828403121561225f5761225e611563565b5b600061226d84828501612234565b91505092915050565b7f5472616e73666572206661696c65640000000000000000000000000000000000600082015250565b60006122ac600f8361192d565b91506122b782612276565b602082019050919050565b600060208201905081810360008301526122db8161229f565b9050919050565b60006040820190506122f760008301856117f1565b61230460208301846117c7565b9392505050565b7f4e487b7100000000000000000000000000000000000000000000000000000000600052603260045260246000fdfea2646970667358221220c101dc35450a27e1c0810e6b0c2919d9f92fb4f6e9352e38ebfe0be15aba849a64736f6c63430008180033",
  "linkReferences": {},
  "deployedLinkReferences": {}
}